{
  "_format": "hh-sol-artifact-1",
  "contractName": "tradeInfo",
  "sourceName": "contracts/tradeInfo.sol",
  "abi": [
    {
      "inputs": [],
      "stateMutability": "nonpayable",
      "type": "constructor"
    },
    {
      "anonymous": false,
      "inputs": [
        {
          "indexed": false,
          "internalType": "string",
          "name": "yourType",
          "type": "string"
        },
        {
          "indexed": false,
          "internalType": "string",
          "name": "detail",
          "type": "string"
        },
        {
          "indexed": false,
          "internalType": "address",
          "name": "yourAddress",
          "type": "address"
        }
      ],
      "name": "SendInfo",
      "type": "event"
    },
    {
      "anonymous": false,
      "inputs": [
        {
          "indexed": false,
          "internalType": "string",
          "name": "typeName",
          "type": "string"
        },
        {
          "indexed": false,
          "internalType": "uint256",
          "name": "typePrice",
          "type": "uint256"
        }
      ],
      "name": "SendType",
      "type": "event"
    },
    {
      "anonymous": false,
      "inputs": [
        {
          "indexed": false,
          "internalType": "address",
          "name": "from",
          "type": "address"
        },
        {
          "indexed": false,
          "internalType": "address",
          "name": "receiver",
          "type": "address"
        },
        {
          "indexed": false,
          "internalType": "uint256",
          "name": "price",
          "type": "uint256"
        },
        {
          "indexed": false,
          "internalType": "uint256",
          "name": "rate",
          "type": "uint256"
        },
        {
          "indexed": false,
          "internalType": "string",
          "name": "message",
          "type": "string"
        }
      ],
      "name": "Transfer",
      "type": "event"
    },
    {
      "inputs": [
        {
          "internalType": "string",
          "name": "yourType",
          "type": "string"
        },
        {
          "internalType": "string",
          "name": "detail",
          "type": "string"
        },
        {
          "internalType": "address",
          "name": "yourAddress",
          "type": "address"
        }
      ],
      "name": "addInfo",
      "outputs": [],
      "stateMutability": "nonpayable",
      "type": "function"
    },
    {
      "inputs": [
        {
          "internalType": "address payable",
          "name": "receiver",
          "type": "address"
        },
        {
          "internalType": "uint256",
          "name": "price",
          "type": "uint256"
        },
        {
          "internalType": "uint256",
          "name": "rate",
          "type": "uint256"
        },
        {
          "internalType": "string",
          "name": "message",
          "type": "string"
        }
      ],
      "name": "addTransaction",
      "outputs": [],
      "stateMutability": "nonpayable",
      "type": "function"
    },
    {
      "inputs": [
        {
          "internalType": "string",
          "name": "typeName",
          "type": "string"
        },
        {
          "internalType": "uint256",
          "name": "typePrice",
          "type": "uint256"
        }
      ],
      "name": "addType",
      "outputs": [],
      "stateMutability": "nonpayable",
      "type": "function"
    },
    {
      "inputs": [],
      "name": "getAllInfo",
      "outputs": [
        {
          "components": [
            {
              "internalType": "string",
              "name": "yourType",
              "type": "string"
            },
            {
              "internalType": "string",
              "name": "detail",
              "type": "string"
            },
            {
              "internalType": "address",
              "name": "yourAddress",
              "type": "address"
            }
          ],
          "internalType": "struct tradeInfo.InfoStruct[]",
          "name": "",
          "type": "tuple[]"
        }
      ],
      "stateMutability": "view",
      "type": "function"
    },
    {
      "inputs": [],
      "name": "getAllTransactions",
      "outputs": [
        {
          "components": [
            {
              "internalType": "address",
              "name": "sender",
              "type": "address"
            },
            {
              "internalType": "address",
              "name": "receiver",
              "type": "address"
            },
            {
              "internalType": "uint256",
              "name": "price",
              "type": "uint256"
            },
            {
              "internalType": "uint256",
              "name": "rate",
              "type": "uint256"
            },
            {
              "internalType": "string",
              "name": "message",
              "type": "string"
            }
          ],
          "internalType": "struct tradeInfo.TransferStruct[]",
          "name": "",
          "type": "tuple[]"
        }
      ],
      "stateMutability": "view",
      "type": "function"
    },
    {
      "inputs": [],
      "name": "getAllType",
      "outputs": [
        {
          "components": [
            {
              "internalType": "string",
              "name": "typeName",
              "type": "string"
            },
            {
              "internalType": "uint256",
              "name": "typePrice",
              "type": "uint256"
            }
          ],
          "internalType": "struct tradeInfo.TypeStruct[]",
          "name": "",
          "type": "tuple[]"
        }
      ],
      "stateMutability": "view",
      "type": "function"
    },
    {
      "inputs": [],
      "name": "getInfoCount",
      "outputs": [
        {
          "internalType": "uint256",
          "name": "",
          "type": "uint256"
        }
      ],
      "stateMutability": "view",
      "type": "function"
    },
    {
      "inputs": [],
      "name": "getTransactionCount",
      "outputs": [
        {
          "internalType": "uint256",
          "name": "",
          "type": "uint256"
        }
      ],
      "stateMutability": "view",
      "type": "function"
    },
    {
      "inputs": [],
      "name": "getTypeCount",
      "outputs": [
        {
          "internalType": "uint256",
          "name": "",
          "type": "uint256"
        }
      ],
      "stateMutability": "view",
      "type": "function"
    },
    {
      "inputs": [],
      "name": "owner",
      "outputs": [
        {
          "internalType": "address",
          "name": "",
          "type": "address"
        }
      ],
      "stateMutability": "view",
      "type": "function"
    }
  ],
  "bytecode": "0x608060405234801561001057600080fd5b50336000806101000a81548173ffffffffffffffffffffffffffffffffffffffff021916908373ffffffffffffffffffffffffffffffffffffffff1602179055506116dd806100606000396000f3fe608060405234801561001057600080fd5b506004361061009e5760003560e01c8063b18e15bd11610066578063b18e15bd14610137578063beb82eda14610155578063c7c20ed414610173578063d4ac1f6114610191578063e644198a146101ad5761009e565b806327506f53146100a35780632e7700f0146100c15780637d02b1a3146100df578063870e3733146100fd5780638da5cb5b14610119575b600080fd5b6100ab6101c9565b6040516100b891906111a4565b60405180910390f35b6100c961037a565b6040516100d6919061125d565b60405180910390f35b6100e7610384565b6040516100f4919061125d565b60405180910390f35b61011760048036038101906101129190610d0f565b61038e565b005b610121610484565b60405161012e919061110d565b60405180910390f35b61013f6104a8565b60405161014c9190611182565b60405180910390f35b61015d610681565b60405161016a91906111c6565b60405180910390f35b61017b61077c565b604051610188919061125d565b60405180910390f35b6101ab60048036038101906101a69190610c15565b610786565b005b6101c760048036038101906101c29190610c90565b61093e565b005b60606008805480602002602001604051908101604052809291908181526020016000905b8282101561037157838290600052602060002090600502016040518060a00160405290816000820160009054906101000a900473ffffffffffffffffffffffffffffffffffffffff1673ffffffffffffffffffffffffffffffffffffffff1673ffffffffffffffffffffffffffffffffffffffff1681526020016001820160009054906101000a900473ffffffffffffffffffffffffffffffffffffffff1673ffffffffffffffffffffffffffffffffffffffff1673ffffffffffffffffffffffffffffffffffffffff16815260200160028201548152602001600382015481526020016004820180546102e090611563565b80601f016020809104026020016040519081016040528092919081815260200182805461030c90611563565b80156103595780601f1061032e57610100808354040283529160200191610359565b820191906000526020600020905b81548152906001019060200180831161033c57829003601f168201915b505050505081525050815260200190600101906101ed565b50505050905090565b6000600754905090565b6000600154905090565b60018060008282546103a091906113bc565b92505081905550600260405180604001604052808481526020018381525090806001815401808255809150506001900390600052602060002090600202016000909190919091506000820151816000019080519060200190610403929190610acb565b50602082015181600101555050600160038360405161042291906110f6565b908152602001604051809103902060006101000a81548160ff0219169083151502179055507f66b401498d6bcb63d93d366fd13c5a9d73d03a62c20aa79c3218ff0756397d8c828260405161047892919061122d565b60405180910390a15050565b60008054906101000a900473ffffffffffffffffffffffffffffffffffffffff1681565b60606005805480602002602001604051908101604052809291908181526020016000905b8282101561067857838290600052602060002090600302016040518060600160405290816000820180546104ff90611563565b80601f016020809104026020016040519081016040528092919081815260200182805461052b90611563565b80156105785780601f1061054d57610100808354040283529160200191610578565b820191906000526020600020905b81548152906001019060200180831161055b57829003601f168201915b5050505050815260200160018201805461059190611563565b80601f01602080910402602001604051908101604052809291908181526020018280546105bd90611563565b801561060a5780601f106105df5761010080835404028352916020019161060a565b820191906000526020600020905b8154815290600101906020018083116105ed57829003601f168201915b505050505081526020016002820160009054906101000a900473ffffffffffffffffffffffffffffffffffffffff1673ffffffffffffffffffffffffffffffffffffffff1673ffffffffffffffffffffffffffffffffffffffff1681525050815260200190600101906104cc565b50505050905090565b60606002805480602002602001604051908101604052809291908181526020016000905b8282101561077357838290600052602060002090600202016040518060400160405290816000820180546106d890611563565b80601f016020809104026020016040519081016040528092919081815260200182805461070490611563565b80156107515780601f1061072657610100808354040283529160200191610751565b820191906000526020600020905b81548152906001019060200180831161073457829003601f168201915b50505050508152602001600182015481525050815260200190600101906106a5565b50505050905090565b6000600454905090565b60016007600082825461079991906113bc565b92505081905550600a826107ad9190611412565b836107b89190611443565b925060086040518060a001604052803373ffffffffffffffffffffffffffffffffffffffff1681526020018673ffffffffffffffffffffffffffffffffffffffff16815260200185815260200184815260200183815250908060018154018082558091505060019003906000526020600020906005020160009091909190915060008201518160000160006101000a81548173ffffffffffffffffffffffffffffffffffffffff021916908373ffffffffffffffffffffffffffffffffffffffff16021790555060208201518160010160006101000a81548173ffffffffffffffffffffffffffffffffffffffff021916908373ffffffffffffffffffffffffffffffffffffffff160217905550604082015181600201556060820151816003015560808201518160040190805190602001906108f6929190610acb565b5050507f6f61ee1206c525dcbefe79039d2f7b768c9ad70030c51ae6623cd74492e8a6d33385858585604051610930959493929190611128565b60405180910390a150505050565b60016004600082825461095191906113bc565b92505081905550600560405180606001604052808581526020018481526020018373ffffffffffffffffffffffffffffffffffffffff16815250908060018154018082558091505060019003906000526020600020906003020160009091909190915060008201518160000190805190602001906109d0929190610acb565b5060208201518160010190805190602001906109ed929190610acb565b5060408201518160020160006101000a81548173ffffffffffffffffffffffffffffffffffffffff021916908373ffffffffffffffffffffffffffffffffffffffff160217905550505082600660008373ffffffffffffffffffffffffffffffffffffffff1673ffffffffffffffffffffffffffffffffffffffff1681526020019081526020016000209080519060200190610a8a929190610acb565b507f1505c5b9c01ec13cbb2783c152836e06e0bbdb5a48bbd3a6726f82743c788437838383604051610abe939291906111e8565b60405180910390a1505050565b828054610ad790611563565b90600052602060002090601f016020900481019282610af95760008555610b40565b82601f10610b1257805160ff1916838001178555610b40565b82800160010185558215610b40579182015b82811115610b3f578251825591602001919060010190610b24565b5b509050610b4d9190610b51565b5090565b5b80821115610b6a576000816000905550600101610b52565b5090565b6000610b81610b7c846112a9565b611278565b905082815260208101848484011115610b9957600080fd5b610ba4848285611521565b509392505050565b600081359050610bbb81611662565b92915050565b600081359050610bd081611679565b92915050565b600082601f830112610be757600080fd5b8135610bf7848260208601610b6e565b91505092915050565b600081359050610c0f81611690565b92915050565b60008060008060808587031215610c2b57600080fd5b6000610c3987828801610bc1565b9450506020610c4a87828801610c00565b9350506040610c5b87828801610c00565b925050606085013567ffffffffffffffff811115610c7857600080fd5b610c8487828801610bd6565b91505092959194509250565b600080600060608486031215610ca557600080fd5b600084013567ffffffffffffffff811115610cbf57600080fd5b610ccb86828701610bd6565b935050602084013567ffffffffffffffff811115610ce857600080fd5b610cf486828701610bd6565b9250506040610d0586828701610bac565b9150509250925092565b60008060408385031215610d2257600080fd5b600083013567ffffffffffffffff811115610d3c57600080fd5b610d4885828601610bd6565b9250506020610d5985828601610c00565b9150509250929050565b6000610d6f8383610fce565b905092915050565b6000610d838383611025565b905092915050565b6000610d97838361109b565b905092915050565b610da8816114eb565b82525050565b610db78161149d565b82525050565b610dc68161149d565b82525050565b6000610dd782611309565b610de1818561135c565b935083602082028501610df3856112d9565b8060005b85811015610e2f5784840389528151610e108582610d63565b9450610e1b83611335565b925060208a01995050600181019050610df7565b50829750879550505050505092915050565b6000610e4c82611314565b610e56818561136d565b935083602082028501610e68856112e9565b8060005b85811015610ea45784840389528151610e858582610d77565b9450610e9083611342565b925060208a01995050600181019050610e6c565b50829750879550505050505092915050565b6000610ec18261131f565b610ecb818561137e565b935083602082028501610edd856112f9565b8060005b85811015610f195784840389528151610efa8582610d8b565b9450610f058361134f565b925060208a01995050600181019050610ee1565b50829750879550505050505092915050565b6000610f368261132a565b610f40818561138f565b9350610f50818560208601611530565b610f5981611651565b840191505092915050565b6000610f6f8261132a565b610f7981856113a0565b9350610f89818560208601611530565b610f9281611651565b840191505092915050565b6000610fa88261132a565b610fb281856113b1565b9350610fc2818560208601611530565b80840191505092915050565b60006060830160008301518482036000860152610feb8282610f2b565b915050602083015184820360208601526110058282610f2b565b915050604083015161101a6040860182610dae565b508091505092915050565b600060a08301600083015161103d6000860182610dae565b5060208301516110506020860182610dae565b50604083015161106360408601826110d8565b50606083015161107660608601826110d8565b506080830151848203608086015261108e8282610f2b565b9150508091505092915050565b600060408301600083015184820360008601526110b88282610f2b565b91505060208301516110cd60208601826110d8565b508091505092915050565b6110e1816114e1565b82525050565b6110f0816114e1565b82525050565b60006111028284610f9d565b915081905092915050565b60006020820190506111226000830184610dbd565b92915050565b600060a08201905061113d6000830188610dbd565b61114a6020830187610d9f565b61115760408301866110e7565b61116460608301856110e7565b81810360808301526111768184610f64565b90509695505050505050565b6000602082019050818103600083015261119c8184610dcc565b905092915050565b600060208201905081810360008301526111be8184610e41565b905092915050565b600060208201905081810360008301526111e08184610eb6565b905092915050565b600060608201905081810360008301526112028186610f64565b905081810360208301526112168185610f64565b90506112256040830184610dbd565b949350505050565b600060408201905081810360008301526112478185610f64565b905061125660208301846110e7565b9392505050565b600060208201905061127260008301846110e7565b92915050565b6000604051905081810181811067ffffffffffffffff8211171561129f5761129e611622565b5b8060405250919050565b600067ffffffffffffffff8211156112c4576112c3611622565b5b601f19601f8301169050602081019050919050565b6000819050602082019050919050565b6000819050602082019050919050565b6000819050602082019050919050565b600081519050919050565b600081519050919050565b600081519050919050565b600081519050919050565b6000602082019050919050565b6000602082019050919050565b6000602082019050919050565b600082825260208201905092915050565b600082825260208201905092915050565b600082825260208201905092915050565b600082825260208201905092915050565b600082825260208201905092915050565b600081905092915050565b60006113c7826114e1565b91506113d2836114e1565b9250827fffffffffffffffffffffffffffffffffffffffffffffffffffffffffffffffff0382111561140757611406611595565b5b828201905092915050565b600061141d826114e1565b9150611428836114e1565b925082611438576114376115c4565b5b828204905092915050565b600061144e826114e1565b9150611459836114e1565b9250817fffffffffffffffffffffffffffffffffffffffffffffffffffffffffffffffff048311821515161561149257611491611595565b5b828202905092915050565b60006114a8826114c1565b9050919050565b60006114ba826114c1565b9050919050565b600073ffffffffffffffffffffffffffffffffffffffff82169050919050565b6000819050919050565b60006114f6826114fd565b9050919050565b60006115088261150f565b9050919050565b600061151a826114c1565b9050919050565b82818337600083830152505050565b60005b8381101561154e578082015181840152602081019050611533565b8381111561155d576000848401525b50505050565b6000600282049050600182168061157b57607f821691505b6020821081141561158f5761158e6115f3565b5b50919050565b7f4e487b7100000000000000000000000000000000000000000000000000000000600052601160045260246000fd5b7f4e487b7100000000000000000000000000000000000000000000000000000000600052601260045260246000fd5b7f4e487b7100000000000000000000000000000000000000000000000000000000600052602260045260246000fd5b7f4e487b7100000000000000000000000000000000000000000000000000000000600052604160045260246000fd5b6000601f19601f8301169050919050565b61166b8161149d565b811461167657600080fd5b50565b611682816114af565b811461168d57600080fd5b50565b611699816114e1565b81146116a457600080fd5b5056fea2646970667358221220c66629ef1962248ed1c54de1b9bd28a7ebd0625113e35df8877452e54a66025f64736f6c63430008000033",
  "linkReferences": {},
  "deployedLinkReferences": {}
}