{
  "_format": "hh-sol-artifact-1",
  "contractName": "tradeinfo",
  "sourceName": "contracts/Tradeinfo.sol",
  "abi": [
    {
      "anonymous": false,
      "inputs": [
        {
          "indexed": false,
          "internalType": "uint256",
          "name": "amount",
          "type": "uint256"
        },
        {
          "indexed": false,
          "internalType": "string",
          "name": "strType",
          "type": "string"
        }
      ],
      "name": "SendType",
      "type": "event"
    },
    {
      "inputs": [
        {
          "internalType": "uint256",
          "name": "amount",
          "type": "uint256"
        },
        {
          "internalType": "string",
          "name": "strType",
          "type": "string"
        }
      ],
      "name": "addTypeToBlockchain",
      "outputs": [],
      "stateMutability": "nonpayable",
      "type": "function"
    },
    {
      "inputs": [],
      "name": "getAllType",
      "outputs": [
        {
          "components": [
            {
              "internalType": "uint256",
              "name": "amount",
              "type": "uint256"
            },
            {
              "internalType": "string",
              "name": "strType",
              "type": "string"
            }
          ],
          "internalType": "struct tradeinfo.TypeStruct[]",
          "name": "",
          "type": "tuple[]"
        }
      ],
      "stateMutability": "view",
      "type": "function"
    },
    {
      "inputs": [],
      "name": "getTypeCount",
      "outputs": [
        {
          "internalType": "uint256",
          "name": "",
          "type": "uint256"
        }
      ],
      "stateMutability": "view",
      "type": "function"
    }
  ],
  "bytecode": "0x608060405234801561001057600080fd5b5061081e806100206000396000f3fe608060405234801561001057600080fd5b50600436106100415760003560e01c80637d02b1a314610046578063be51fc5114610064578063beb82eda14610080575b600080fd5b61004e61009e565b60405161005b919061054d565b60405180910390f35b61007e60048036038101906100799190610381565b6100a7565b005b610088610166565b604051610095919061052b565b60405180910390f35b60008054905090565b60016000808282546100b9919061065f565b9250508190555060016040518060400160405280848152602001838152509080600181540180825580915050600190039060005260206000209060020201600090919091909150600082015181600001556020820151816001019080519060200190610126929190610261565b5050507f1253a29d2000b1d215c1c5f2f841a1710c22bbfbebf96234a5178280574feef6828260405161015a929190610568565b60405180910390a15050565b60606001805480602002602001604051908101604052809291908181526020016000905b828210156102585783829060005260206000209060020201604051806040016040529081600082015481526020016001820180546101c790610701565b80601f01602080910402602001604051908101604052809291908181526020018280546101f390610701565b80156102405780601f1061021557610100808354040283529160200191610240565b820191906000526020600020905b81548152906001019060200180831161022357829003601f168201915b5050505050815250508152602001906001019061018a565b50505050905090565b82805461026d90610701565b90600052602060002090601f01602090048101928261028f57600085556102d6565b82601f106102a857805160ff19168380011785556102d6565b828001600101855582156102d6579182015b828111156102d55782518255916020019190600101906102ba565b5b5090506102e391906102e7565b5090565b5b808211156103005760008160009055506001016102e8565b5090565b6000610317610312846105c9565b610598565b90508281526020810184848401111561032f57600080fd5b61033a8482856106bf565b509392505050565b600082601f83011261035357600080fd5b8135610363848260208601610304565b91505092915050565b60008135905061037b816107d1565b92915050565b6000806040838503121561039457600080fd5b60006103a28582860161036c565b925050602083013567ffffffffffffffff8111156103bf57600080fd5b6103cb85828601610342565b9150509250929050565b60006103e183836104d0565b905092915050565b60006103f482610609565b6103fe818561062c565b935083602082028501610410856105f9565b8060005b8581101561044c578484038952815161042d85826103d5565b94506104388361061f565b925060208a01995050600181019050610414565b50829750879550505050505092915050565b600061046982610614565b610473818561063d565b93506104838185602086016106ce565b61048c816107c0565b840191505092915050565b60006104a282610614565b6104ac818561064e565b93506104bc8185602086016106ce565b6104c5816107c0565b840191505092915050565b60006040830160008301516104e8600086018261050d565b5060208301518482036020860152610500828261045e565b9150508091505092915050565b610516816106b5565b82525050565b610525816106b5565b82525050565b6000602082019050818103600083015261054581846103e9565b905092915050565b6000602082019050610562600083018461051c565b92915050565b600060408201905061057d600083018561051c565b818103602083015261058f8184610497565b90509392505050565b6000604051905081810181811067ffffffffffffffff821117156105bf576105be610791565b5b8060405250919050565b600067ffffffffffffffff8211156105e4576105e3610791565b5b601f19601f8301169050602081019050919050565b6000819050602082019050919050565b600081519050919050565b600081519050919050565b6000602082019050919050565b600082825260208201905092915050565b600082825260208201905092915050565b600082825260208201905092915050565b600061066a826106b5565b9150610675836106b5565b9250827fffffffffffffffffffffffffffffffffffffffffffffffffffffffffffffffff038211156106aa576106a9610733565b5b828201905092915050565b6000819050919050565b82818337600083830152505050565b60005b838110156106ec5780820151818401526020810190506106d1565b838111156106fb576000848401525b50505050565b6000600282049050600182168061071957607f821691505b6020821081141561072d5761072c610762565b5b50919050565b7f4e487b7100000000000000000000000000000000000000000000000000000000600052601160045260246000fd5b7f4e487b7100000000000000000000000000000000000000000000000000000000600052602260045260246000fd5b7f4e487b7100000000000000000000000000000000000000000000000000000000600052604160045260246000fd5b6000601f19601f8301169050919050565b6107da816106b5565b81146107e557600080fd5b5056fea2646970667358221220b304206a2f7800acde23497ba1aed175c1c702f6e71d58d855e34ba8cceecd3464736f6c63430008000033",
  "linkReferences": {},
  "deployedLinkReferences": {}
}