{
  "_format": "hh-sol-artifact-1",
  "contractName": "tradeInfo",
  "sourceName": "contracts/Tradeinfo.sol",
  "abi": [
    {
      "anonymous": false,
      "inputs": [
        {
          "indexed": false,
          "internalType": "address",
          "name": "addr",
          "type": "address"
        },
        {
          "indexed": false,
          "internalType": "string",
          "name": "aType",
          "type": "string"
        },
        {
          "indexed": false,
          "internalType": "string",
          "name": "someDetail",
          "type": "string"
        }
      ],
      "name": "psychInfoObject",
      "type": "event"
    },
    {
      "anonymous": false,
      "inputs": [
        {
          "indexed": false,
          "internalType": "string",
          "name": "aType",
          "type": "string"
        },
        {
          "indexed": false,
          "internalType": "uint256",
          "name": "mapNum",
          "type": "uint256"
        }
      ],
      "name": "psychType",
      "type": "event"
    },
    {
      "anonymous": false,
      "inputs": [
        {
          "indexed": false,
          "internalType": "address",
          "name": "receiver",
          "type": "address"
        },
        {
          "indexed": false,
          "internalType": "uint256",
          "name": "amount",
          "type": "uint256"
        },
        {
          "indexed": false,
          "internalType": "uint256",
          "name": "score",
          "type": "uint256"
        }
      ],
      "name": "transfer",
      "type": "event"
    },
    {
      "inputs": [
        {
          "internalType": "address payable",
          "name": "addr",
          "type": "address"
        },
        {
          "internalType": "string",
          "name": "aType",
          "type": "string"
        },
        {
          "internalType": "string",
          "name": "someDetail",
          "type": "string"
        }
      ],
      "name": "addInfo",
      "outputs": [],
      "stateMutability": "nonpayable",
      "type": "function"
    },
    {
      "inputs": [
        {
          "internalType": "address payable",
          "name": "receiver",
          "type": "address"
        },
        {
          "internalType": "uint256",
          "name": "amount",
          "type": "uint256"
        },
        {
          "internalType": "uint256",
          "name": "score",
          "type": "uint256"
        }
      ],
      "name": "addTransactions",
      "outputs": [],
      "stateMutability": "nonpayable",
      "type": "function"
    },
    {
      "inputs": [
        {
          "internalType": "string",
          "name": "aType",
          "type": "string"
        },
        {
          "internalType": "uint256",
          "name": "mapNum",
          "type": "uint256"
        }
      ],
      "name": "addType",
      "outputs": [],
      "stateMutability": "nonpayable",
      "type": "function"
    },
    {
      "inputs": [],
      "name": "getAllTransaction",
      "outputs": [
        {
          "components": [
            {
              "internalType": "address",
              "name": "addr",
              "type": "address"
            },
            {
              "internalType": "uint256",
              "name": "amount",
              "type": "uint256"
            },
            {
              "internalType": "uint256",
              "name": "score",
              "type": "uint256"
            }
          ],
          "internalType": "struct tradeInfo.transferStruct[]",
          "name": "",
          "type": "tuple[]"
        }
      ],
      "stateMutability": "view",
      "type": "function"
    },
    {
      "inputs": [],
      "name": "getInfo",
      "outputs": [
        {
          "components": [
            {
              "internalType": "address",
              "name": "addr",
              "type": "address"
            },
            {
              "internalType": "string",
              "name": "aType",
              "type": "string"
            },
            {
              "internalType": "string",
              "name": "someDetail",
              "type": "string"
            }
          ],
          "internalType": "struct tradeInfo.psychInfoStruct[]",
          "name": "",
          "type": "tuple[]"
        }
      ],
      "stateMutability": "view",
      "type": "function"
    },
    {
      "inputs": [],
      "name": "getInfoCount",
      "outputs": [
        {
          "internalType": "uint256",
          "name": "",
          "type": "uint256"
        }
      ],
      "stateMutability": "view",
      "type": "function"
    },
    {
      "inputs": [],
      "name": "getTransactionCount",
      "outputs": [
        {
          "internalType": "uint256",
          "name": "",
          "type": "uint256"
        }
      ],
      "stateMutability": "view",
      "type": "function"
    },
    {
      "inputs": [],
      "name": "getType",
      "outputs": [
        {
          "components": [
            {
              "internalType": "string",
              "name": "aType",
              "type": "string"
            },
            {
              "internalType": "uint256",
              "name": "mapNum",
              "type": "uint256"
            }
          ],
          "internalType": "struct tradeInfo.psychTypeStruct[]",
          "name": "",
          "type": "tuple[]"
        }
      ],
      "stateMutability": "view",
      "type": "function"
    },
    {
      "inputs": [],
      "name": "getTypeCount",
      "outputs": [
        {
          "internalType": "uint256",
          "name": "",
          "type": "uint256"
        }
      ],
      "stateMutability": "view",
      "type": "function"
    }
  ],
  "bytecode": "0x608060405234801561001057600080fd5b5061127e806100206000396000f3fe608060405234801561001057600080fd5b50600436106100935760003560e01c80637d02b1a3116100665780637d02b1a31461010e578063870e37331461012c578063add6415d14610148578063b2a44e0114610166578063c7c20ed41461018257610093565b806315dae03e146100985780632e7700f0146100b6578063583ec57f146100d45780635a9b0b89146100f0575b600080fd5b6100a06101a0565b6040516100ad9190610e66565b60405180910390f35b6100be61029b565b6040516100cb9190610eda565b60405180910390f35b6100ee60048036038101906100e9919061099a565b6102a5565b005b6100f86103de565b6040516101059190610e44565b60405180910390f35b6101166105b7565b6040516101239190610eda565b60405180910390f35b61014660048036038101906101419190610a68565b6105c0565b005b61015061067f565b60405161015d9190610e88565b60405180910390f35b610180600480360381019061017b9190610a19565b610748565b005b61018a61085b565b6040516101979190610eda565b60405180910390f35b60606001805480602002602001604051908101604052809291908181526020016000905b8282101561029257838290600052602060002090600202016040518060400160405290816000820180546101f79061114a565b80601f01602080910402602001604051908101604052809291908181526020018280546102239061114a565b80156102705780601f1061024557610100808354040283529160200191610270565b820191906000526020600020905b81548152906001019060200180831161025357829003601f168201915b50505050508152602001600182015481525050815260200190600101906101c4565b50505050905090565b6000600454905090565b6001600260008282546102b8919061102e565b92505081905550600360405180606001604052808573ffffffffffffffffffffffffffffffffffffffff16815260200184815260200183815250908060018154018082558091505060019003906000526020600020906003020160009091909190915060008201518160000160006101000a81548173ffffffffffffffffffffffffffffffffffffffff021916908373ffffffffffffffffffffffffffffffffffffffff160217905550602082015181600101908051906020019061037e929190610865565b50604082015181600201908051906020019061039b929190610865565b5050507fb6fe95745464607a9acde43692a999d3c045598e76b94d39646ed246e8ca83768383836040516103d193929190610dc8565b60405180910390a1505050565b60606003805480602002602001604051908101604052809291908181526020016000905b828210156105ae57838290600052602060002090600302016040518060600160405290816000820160009054906101000a900473ffffffffffffffffffffffffffffffffffffffff1673ffffffffffffffffffffffffffffffffffffffff1673ffffffffffffffffffffffffffffffffffffffff16815260200160018201805461048b9061114a565b80601f01602080910402602001604051908101604052809291908181526020018280546104b79061114a565b80156105045780601f106104d957610100808354040283529160200191610504565b820191906000526020600020905b8154815290600101906020018083116104e757829003601f168201915b5050505050815260200160028201805461051d9061114a565b80601f01602080910402602001604051908101604052809291908181526020018280546105499061114a565b80156105965780601f1061056b57610100808354040283529160200191610596565b820191906000526020600020905b81548152906001019060200180831161057957829003601f168201915b50505050508152505081526020019060010190610402565b50505050905090565b60008054905090565b60016000808282546105d2919061102e565b92505081905550600160405180604001604052808481526020018381525090806001815401808255809150506001900390600052602060002090600202016000909190919091506000820151816000019080519060200190610635929190610865565b506020820151816001015550507f4825c24a26a2dba4db623013ca908450f96c84ae5e91ef0337e6cd0c9bb478fa8282604051610673929190610eaa565b60405180910390a15050565b60606005805480602002602001604051908101604052809291908181526020016000905b8282101561073f57838290600052602060002090600302016040518060600160405290816000820160009054906101000a900473ffffffffffffffffffffffffffffffffffffffff1673ffffffffffffffffffffffffffffffffffffffff1673ffffffffffffffffffffffffffffffffffffffff16815260200160018201548152602001600282015481525050815260200190600101906106a3565b50505050905090565b60016004600082825461075b919061102e565b92505081905550600560405180606001604052808573ffffffffffffffffffffffffffffffffffffffff16815260200184815260200183815250908060018154018082558091505060019003906000526020600020906003020160009091909190915060008201518160000160006101000a81548173ffffffffffffffffffffffffffffffffffffffff021916908373ffffffffffffffffffffffffffffffffffffffff160217905550602082015181600101556040820151816002015550507f095bcdb627e21ee89c38dc5069f89166d365b3cd89be90dff87796149e866e2f83838360405161084e93929190610e0d565b60405180910390a1505050565b6000600254905090565b8280546108719061114a565b90600052602060002090601f01602090048101928261089357600085556108da565b82601f106108ac57805160ff19168380011785556108da565b828001600101855582156108da579182015b828111156108d95782518255916020019190600101906108be565b5b5090506108e791906108eb565b5090565b5b808211156109045760008160009055506001016108ec565b5090565b600061091b61091684610f26565b610ef5565b90508281526020810184848401111561093357600080fd5b61093e848285611108565b509392505050565b6000813590506109558161121a565b92915050565b600082601f83011261096c57600080fd5b813561097c848260208601610908565b91505092915050565b60008135905061099481611231565b92915050565b6000806000606084860312156109af57600080fd5b60006109bd86828701610946565b935050602084013567ffffffffffffffff8111156109da57600080fd5b6109e68682870161095b565b925050604084013567ffffffffffffffff811115610a0357600080fd5b610a0f8682870161095b565b9150509250925092565b600080600060608486031215610a2e57600080fd5b6000610a3c86828701610946565b9350506020610a4d86828701610985565b9250506040610a5e86828701610985565b9150509250925092565b60008060408385031215610a7b57600080fd5b600083013567ffffffffffffffff811115610a9557600080fd5b610aa18582860161095b565b9250506020610ab285828601610985565b9150509250929050565b6000610ac88383610cd4565b905092915050565b6000610adc8383610d2b565b905092915050565b6000610af08383610d68565b60608301905092915050565b610b05816110d2565b82525050565b610b1481611084565b82525050565b6000610b2582610f86565b610b2f8185610fd9565b935083602082028501610b4185610f56565b8060005b85811015610b7d5784840389528151610b5e8582610abc565b9450610b6983610fb2565b925060208a01995050600181019050610b45565b50829750879550505050505092915050565b6000610b9a82610f91565b610ba48185610fea565b935083602082028501610bb685610f66565b8060005b85811015610bf25784840389528151610bd38582610ad0565b9450610bde83610fbf565b925060208a01995050600181019050610bba565b50829750879550505050505092915050565b6000610c0f82610f9c565b610c198185610ffb565b9350610c2483610f76565b8060005b83811015610c55578151610c3c8882610ae4565b9750610c4783610fcc565b925050600181019050610c28565b5085935050505092915050565b6000610c6d82610fa7565b610c77818561100c565b9350610c87818560208601611117565b610c9081611209565b840191505092915050565b6000610ca682610fa7565b610cb0818561101d565b9350610cc0818560208601611117565b610cc981611209565b840191505092915050565b6000606083016000830151610cec6000860182610b0b565b5060208301518482036020860152610d048282610c62565b91505060408301518482036040860152610d1e8282610c62565b9150508091505092915050565b60006040830160008301518482036000860152610d488282610c62565b9150506020830151610d5d6020860182610daa565b508091505092915050565b606082016000820151610d7e6000850182610b0b565b506020820151610d916020850182610daa565b506040820151610da46040850182610daa565b50505050565b610db3816110c8565b82525050565b610dc2816110c8565b82525050565b6000606082019050610ddd6000830186610afc565b8181036020830152610def8185610c9b565b90508181036040830152610e038184610c9b565b9050949350505050565b6000606082019050610e226000830186610afc565b610e2f6020830185610db9565b610e3c6040830184610db9565b949350505050565b60006020820190508181036000830152610e5e8184610b1a565b905092915050565b60006020820190508181036000830152610e808184610b8f565b905092915050565b60006020820190508181036000830152610ea28184610c04565b905092915050565b60006040820190508181036000830152610ec48185610c9b565b9050610ed36020830184610db9565b9392505050565b6000602082019050610eef6000830184610db9565b92915050565b6000604051905081810181811067ffffffffffffffff82111715610f1c57610f1b6111da565b5b8060405250919050565b600067ffffffffffffffff821115610f4157610f406111da565b5b601f19601f8301169050602081019050919050565b6000819050602082019050919050565b6000819050602082019050919050565b6000819050602082019050919050565b600081519050919050565b600081519050919050565b600081519050919050565b600081519050919050565b6000602082019050919050565b6000602082019050919050565b6000602082019050919050565b600082825260208201905092915050565b600082825260208201905092915050565b600082825260208201905092915050565b600082825260208201905092915050565b600082825260208201905092915050565b6000611039826110c8565b9150611044836110c8565b9250827fffffffffffffffffffffffffffffffffffffffffffffffffffffffffffffffff038211156110795761107861117c565b5b828201905092915050565b600061108f826110a8565b9050919050565b60006110a1826110a8565b9050919050565b600073ffffffffffffffffffffffffffffffffffffffff82169050919050565b6000819050919050565b60006110dd826110e4565b9050919050565b60006110ef826110f6565b9050919050565b6000611101826110a8565b9050919050565b82818337600083830152505050565b60005b8381101561113557808201518184015260208101905061111a565b83811115611144576000848401525b50505050565b6000600282049050600182168061116257607f821691505b60208210811415611176576111756111ab565b5b50919050565b7f4e487b7100000000000000000000000000000000000000000000000000000000600052601160045260246000fd5b7f4e487b7100000000000000000000000000000000000000000000000000000000600052602260045260246000fd5b7f4e487b7100000000000000000000000000000000000000000000000000000000600052604160045260246000fd5b6000601f19601f8301169050919050565b61122381611096565b811461122e57600080fd5b50565b61123a816110c8565b811461124557600080fd5b5056fea26469706673582212202396f02bb4889381e2fdddc6d8f8e32c76eb0702e4239324ffb5c74d751787ef64736f6c63430008000033",
  "linkReferences": {},
  "deployedLinkReferences": {}
}